:100000000C9434000C9451000C9451000C94510049
:100010000C944A010C9451000C9451000C94510022
:100020000C9451000C9451000C9451000C947001EC
:100030000C9451000C9451000C94F0000C941D0190
:100040000C9451000C9451000C94AE000C9451008F
:100050000C9451000C9451000C9451000C945100DC
:100060000C9451000C94510011241FBECFEFD8E026
:10007000DEBFCDBF11E0A0E0B1E0EAEAFAE002C0E5
:1000800005900D92AA30B107D9F721E0AAE0B1E0BE
:1000900001C01D92AE32B207E1F70E9495010C94A7
:1000A00053050C94000080E480937C00EAE7F0E0C4
:1000B00080818668808308953C983D9A449A539A3B
:1000C000ECE6F0E0808180618083E8E6F0E080810A
:1000D00082608083E1E8F0E08081886080838081B5
:1000E00082608083EFE6F0E08081826080838FE829
:1000F00091E09093890080938800E0EBF0E08081AC
:1001000083638083E1EBF0E080818F6080838FEFF9
:100110008093B3008FED8093B4000895F894459ACE
:1001200085E38A95F1F7000045987894089520E0DA
:1001300030E044E353E40E94930320E030E040EFDA
:1001400051E40E94E60420E030E04AE553E40E94D6
:1001500022030E9405046093B40008951F920F9239
:100160000FB60F9211242F933F934F938F939F932A
:10017000EF93FF9380911001909111019C012F5FEB
:100180003F4F30931101209310014091C600FC01B4
:10019000E55EFE4F408324303105B4F0109211012A
:1001A00010921001EBE1F1E02081818190E0922B2F
:1001B00090932D0180932C012281838190E0922BDA
:1001C0009093210180932001FF91EF919F918F9156
:1001D0004F913F912F910F900FBE0F901F90189548
:1001E0001F920F920FB60F9211242F933F934F93AC
:1001F0005F936F937F938F939F93AF93BF93EF938F
:10020000FF936091160170911701809118019091F0
:1002100019010E94050467BDFF91EF91BF91AF9155
:100220009F918F917F916F915F914F913F912F910E
:100230000F900FBE0F901F9018951F920F920FB640
:100240000F9211242F933F934F935F936F937F935C
:100250008F939F93AF93BF93EF93FF93609112019E
:100260007091130180911401909115010E94050471
:1002700068BDFF91EF91BF91AF919F918F917F9159
:100280006F915F914F913F912F910F900FBE0F9003
:100290001F9018951F920F920FB60F9211248F93F3
:1002A000F894349B07C010920D0180910A018111CE
:1002B0000FC00CC080910D0180931F01873020F486
:1002C00081E080930A0104C010920A012C9801C0B9
:1002D0002C9A78948F910F900FBE0F901F901895C5
:1002E0001F920F920FB60F9211248F939F938091BC
:1002F0000E0190910F01019690930F0180930E01D2
:1003000080910D018F5F80930D0180910B01909181
:100310000C01019690930C0180930B019F918F919A
:100320000F900FBE0F901F9018950E940D030E9412
:1003300053000E945C007894249A8AB1806C8AB938
:100340008AB18FEF8AB994B184B986E987BD88BD37
:1003500084B5806884BD84B5806284BD84B58360C3
:1003600084BD85B5836085BDEEE6F0E08081866062
:10037000808310922D0110922C0110922101109275
:100380002001CEEED1E00EE110E00F2EC12CD12CD9
:10039000F8E4EF2EF3E4FF2EF02D60912C01709124
:1003A0002D01633022E0720780F0725076956795D8
:1003B00080E090E00E94340460930601709307018E
:1003C000809308019093090120C06E3E81E0780778
:1003D00098F4CE01861B970BBC017695679580E05B
:1003E00090E00E94340460930601709307018093AB
:1003F00008019093090109C01092060110920701AB
:10040000109208011092090111C08090060190908D
:100410000701A0900801B090090120E030E0A90197
:10042000C501B4010E948E03811111C01092160102
:1004300010921701109218011092190110921201D6
:100440001092130110921401109215016FC0609167
:10045000200170912101633092E0790740F17250E0
:100460007695679580E090E00E9434049B01AC0192
:10047000609302017093030180930401909305013E
:100480008092120190921301A0921401B092150172
:1004900060E070E08FE793E40E942103609316010F
:1004A0007093170180931801909319013FC06E3E1D
:1004B00021E0720758F5CE01861B970BBC0176959B
:1004C000679580E090E00E9434049B01AC0160934A
:1004D00002017093030180930401909305018092BF
:1004E000160190921701A0921801B092190160E0D4
:1004F00070E08FE793E40E942103609312017093F0
:100500001301809314019093150110C08092120181
:1005100090921301A0921401B092150180921601DD
:1005200090921701A0921801B092190180912C01AC
:1005300090912D010E94060380931A0180910E0173
:1005400090910F018C32914030F00E948E001092F9
:100550000F0110920E0180910B0190910C018436D5
:10056000910508F180910001909101018639910572
:1005700024F010930101009300016091000170913B
:1005800001016F5F7F4F7093010160930001072E9F
:10059000000C880B990B0E9436040E949700109261
:1005A0000C0110920B0180910A018130D9F4C092A4
:1005B0001601D0921701E0921801F0921901C09231
:1005C0001201D0921301E0921401F09215010E94E1
:1005D000FC028FEF99E628E1815090402040E1F73E
:1005E00000C0000080911A01811103C00E94010324
:1005F000D4CE0E94FC02D1CE5F98289A299A2B98DB
:1006000008955F9A289829982B9A089521E08335B8
:10061000924008F020E0822F089580E190E09093CE
:10062000C5008093C400E1ECF0E08081886980839C
:100630008EE08093C200E0ECF0E0808182608083F5
:1006400008955058BB27AA270E9439030C94AC0484
:100650000E949E0438F00E94A50420F039F49F3FC8
:1006600019F426F40C949B040EF4E095E7FB0C942B
:100670009504E92F0E94BD0458F3BA176207730767
:100680008407950720F079F4A6F50C94DF040EF4A6
:10069000E0950B2EBA2FA02D0B01B90190010C0192
:1006A000CA01A0011124FF27591B99F0593F50F4AA
:1006B000503E68F11A16F040A22F232F342F442702
:1006C000585FF3CF469537952795A795F0405395FA
:1006D000C9F77EF41F16BA0B620B730B840BBAF0CA
:1006E0009150A1F0FF0FBB1F661F771F881FC2F735
:1006F0000EC0BA0F621F731F841F48F48795779549
:100700006795B795F7959E3F08F0B0CF9395880F02
:1007100008F09927EE0F9795879508950E94710428
:1007200008F481E008950E94A7030C94AC040E9491
:10073000A50458F00E949E0440F029F45F3F29F080
:100740000C94950451110C94E0040C949B040E94A9
:10075000BD0468F39923B1F3552391F3951B550B11
:10076000BB27AA2762177307840738F09F5F5F4F84
:10077000220F331F441FAA1FA9F335D00E2E3AF0C3
:10078000E0E832D091505040E695001CCAF72BD0DB
:10079000FE2F29D0660F771F881FBB1F261737072C
:1007A0004807AB07B0E809F0BB0B802DBF01FF275E
:1007B00093585F4F3AF09E3F510578F00C949504A2
:1007C0000C94E0045F3FE4F3983ED4F3869577956C
:1007D0006795B795F7959F5FC9F7880F911D969517
:1007E000879597F90895E1E0660F771F881FBB1F73
:1007F000621773078407BA0720F0621B730B840B20
:10080000BA0BEE1F88F7E09508950E94C50488F0A2
:100810009F5798F0B92F9927B751B0F0E1F0660FC4
:10082000771F881F991F1AF0BA95C9F714C0B13005
:1008300091F00E94DF04B1E008950C94DF04672F6B
:10084000782F8827B85F39F0B93FCCF38695779534
:100850006795B395D9F73EF490958095709561951D
:100860007F4F8F4F9F4F0895E89409C097FB3EF448
:1008700090958095709561957F4F8F4F9F4F9923ED
:10088000A9F0F92F96E9BB279395F695879577956B
:100890006795B795F111F8CFFAF4BB0F11F460FF2B
:1008A0001BC06F5F7F4F8F4F9F4F16C0882311F083
:1008B00096E911C0772321F09EE8872F762F05C097
:1008C000662371F096E8862F70E060E02AF09A9532
:1008D000660F771F881FDAF7880F9695879597F927
:1008E0000895990F0008550FAA0BE0E8FEEF1616C1
:1008F0001706E807F907C0F012161306E407F50714
:1009000098F0621B730B840B950B39F40A2661F087
:10091000232B242B252B21F408950A2609F4A1402A
:10092000A6958FEF811D811D089597F99F6780E837
:1009300070E060E008959FEF80EC089500240A9431
:100940001616170618060906089500240A941216AA
:100950001306140605060895092E0394000C11F4DD
:10096000882352F0BB0F40F4BF2B11F460FF04C08A
:100970006F5F7F4F8F4F9F4F089557FD9058440FE3
:10098000551F59F05F3F71F04795880F97FB991FEE
:1009900061F09F3F79F087950895121613061406AB
:1009A000551FF2CF4695F1DF08C016161706180638
:1009B000991FF1CF86957105610508940895E89413
:1009C000BB2766277727CB0197F908950E94F90482
:1009D0000C94AC040E949E0438F00E94A50420F000
:1009E000952311F00C9495040C949B0411240C9401
:1009F000E0040E94BD0470F3959FC1F3950F50E091
:100A0000551F629FF001729FBB27F00DB11D639FC0
:100A1000AA27F00DB11DAA1F649F6627B00DA11D66
:100A2000661F829F2227B00DA11D621F739FB00D0C
:100A3000A11D621F839FA00D611D221F749F33277C
:100A4000A00D611D231F849F600D211D822F762F15
:100A50006A2F11249F5750409AF0F1F088234AF0F2
:100A6000EE0FFF1FBB1F661F771F881F915050405E
:100A7000A9F79E3F510580F00C9495040C94E00476
:100A80005F3FE4F3983ED4F3869577956795B795E5
:100A9000F795E7959F5FC1F7FE2B880F911D9695FF
:0A0AA000879597F90895F894FFCFA9
:0A0AAA001E0000000044000000449C
:00000001FF
